:020000040000FA
:100000000C9462000C941C050C94F5040C948A006A
:100010000C948A000C948A000C948A000C948A0038
:100020000C948A000C948A000C948A000C948A0028
:100030000C948A000C948A000C948A000C948A0018
:100040000C94AB040C948A000C9479040C94530423
:100050000C948A000C948A000C948A000C948A00F8
:100060000C948A000C948A000000000024002700F1
:100070002A0000000000250028002B0000000000DE
:1000800023002600290004040404040404040202DA
:100090000202020203030303030301020408102007
:1000A0004080010204081020010204081020000012
:1000B0000008000201000003040700000000000027
:1000C0000000430511241FBECFEFD8E0DEBFCDBF37
:1000D00011E0A0E0B1E0ECE9F1E102C005900D9281
:1000E000A631B107D9F722E0A6E1B1E001C01D9227
:1000F000A932B207E1F710E0C2E6D0E004C02197D0
:10010000FE010E94C608C136D107C9F70E947605D4
:100110000C94CC080C940000CF92DF92EF92FF92E7
:10012000CF93DF93EC016A017B01E889F98982E0D2
:100130008083C11481EED806E104F104A1F060E0EF
:1001400079E08DE390E0A70196010E94A408215078
:10015000310941095109569547953795279521153C
:1001600080E1380798F0E889F989108260E874E83E
:100170008EE190E0A70196010E94A4082150310968
:10018000410951095695479537952795EC85FD8589
:100190003083EE85FF852083188EEC89FD898EE003
:1001A0008083EA89FB89808180618083EA89FB8979
:1001B000808188608083EA89FB8980818068808370
:1001C000EA89FB8980818F7D8083DF91CF91FF90C9
:1001D000EF90DF90CF9008950895AF92BF92CF92A5
:1001E000DF92EF92FF920F931F93CF93DF936C01F7
:1001F0007B018B01040F151FEB015E01AE18BF08D8
:10020000C017D10759F06991D601ED91FC91019089
:10021000F081E02DC6010995892B79F7C501DF91A1
:10022000CF911F910F91FF90EF90DF90CF90BF90F3
:10023000AF900895FC01538D448D252F30E0842F1D
:1002400090E0821B930B541710F0CF9608950197FE
:100250000895FC01918D828D981761F0A28DAE0FEB
:10026000BF2FB11D5D968C91928D9F5F9F73928F72
:1002700090E008958FEF9FEF0895FC01918D828D9E
:10028000981731F0828DE80FF11D858D90E008956B
:100290008FEF9FEF0895FC01918D228D892F90E0C3
:1002A000805C9F4F821B91098F73992708958AE87C
:1002B00091E00E944B0121E0892B09F420E0822F7C
:1002C000089580E090E0892B29F00E945701811168
:1002D0000C9400000895FC01A48DA80FB92FB11D46
:1002E000A35ABF4F2C91848D90E001968F7399276C
:1002F000848FA689B7892C93A089B1898C9183704A
:1003000080648C93938D848D981306C00288F38942
:10031000E02D80818F7D80830895EF92FF920F936F
:100320001F93CF93DF93EC0181E0888F9B8D8C8DA1
:1003300098131AC0E889F989808185FF15C09FB795
:10034000F894EE89FF896083E889F9898081837058
:10035000806480839FBF81E090E0DF91CF911F9107
:100360000F91FF90EF900895F62E0B8D10E00F5F28
:100370001F4F0F731127E02E8C8D8E110CC00FB6FE
:1003800007FCFACFE889F989808185FFF5CFCE0196
:100390000E946B01F1CFEB8DEC0FFD2FF11DE35AA5
:1003A000FF4FF0829FB7F8940B8FEA89FB89808119
:1003B0008062CFCFCF93DF93EC01888D8823B9F093
:1003C000AA89BB89E889F9898C9185FD03C0808160
:1003D00086FD0DC00FB607FCF7CF8C9185FFF2CFDD
:1003E000808185FFEDCFCE010E946B01E9CFDF91C7
:1003F000CF910895833081F028F4813099F08230D4
:10040000A9F008958730A9F08830C9F08430B1F49C
:10041000809180008F7D03C0809180008F778093D2
:100420008000089584B58F7784BD089584B58F7D4D
:10043000FBCF8091B0008F778093B00008958091BA
:10044000B0008F7DF9CFCF93DF93282F30E0F901F3
:10045000E255FF4F8491F901E656FF4FD491F9011F
:10046000EA57FF4FC491CC23A1F081110E94FA01F9
:10047000EC2FF0E0EE0FFF1FE458FF4FA591B49171
:10048000EC91ED2381E090E009F480E0DF91CF91E1
:10049000089580E090E0FACF1F93CF93DF93282F49
:1004A00030E0F901E255FF4F8491F901E656FF4F24
:1004B000D491F901EA57FF4FC491CC23A9F0162F2C
:1004C00081110E94FA01EC2FF0E0EE0FFF1FEE58B1
:1004D000FF4FA591B4918FB7F894EC91111108C01A
:1004E000D095DE23DC938FBFDF91CF911F910895CC
:1004F000DE2BF8CFCF93DF9390E0FC01E656FF4F61
:1005000024918A579F4FFC0184918823D1F090E079
:10051000880F991FFC01E859FF4FA591B491FC0188
:10052000EE58FF4FC591D491623071F49FB7F894A3
:100530003C91822F809583238C93E8812E2B2883F6
:100540009FBFDF91CF9108958FB7F894EC912E2B38
:100550002C938FBFF6CFCF93DF93EC0161E085E062
:100560000E947A02209731F460E085E0DF91CF911C
:100570000C944C02CF3FD10511F461E0F6CFE3EBD0
:10058000F0E0E491E33029F140F4E130B1F0E23001
:10059000D9F0C038D1058CF7E7CFE73021F1E8304A
:1005A00051F1E430B1F78091800080628093800047
:1005B000D0938B00C0938A0004C084B5806884BD4A
:1005C000C7BDDF91CF91089584B5806284BDC8BD59
:1005D000F8CF80918000806880938000D09389005C
:1005E000C0938800EECF8091B00080688093B00007
:1005F000C093B300E6CF8091B00080628093B000DA
:10060000C093B400DECF3FB7F89480911B01909166
:100610001C01A0911D01B0911E0126B5A89B05C02B
:100620002F3F19F00196A11DB11D3FBFBA2FA92F71
:10063000982F8827BC01CD01620F711D811D911D6E
:1006400042E0660F771F881F991F4A95D1F70895DA
:100650008F929F92AF92BF92CF92DF92EF92FF92D2
:100660004B015C010E9403036B017C010E940303A8
:100670006C197D098E099F09683E734081059105BB
:10068000A8F321E0821A9108A108B10888EEC80EEB
:1006900083E0D81EE11CF11C81149104A104B10473
:1006A00029F7FF90EF90DF90CF90BF90AF909F9091
:1006B0008F9008952FB7F8946091170170911801E9
:1006C0008091190190911A012FBF08950F931F93E4
:1006D000CF93DF93D82F61E080911F010E944C02DD
:1006E0000DE211E0C0E080916D0190916E01DC019E
:1006F000ED91FC91CD1749F0D8016D918D010190DC
:10070000F081E02D0995CF5FEECF0680F781E02DD7
:10071000099580912001909121018230910538F056
:10072000880F991F880F991F05970197F1F760E0CF
:1007300080911F01DF91CF911F910F910C944C027A
:10074000EDE2F1E090E02FEF3FEF981791F041914B
:10075000242748E0B9016170772736952795672BE4
:1007600021F051E0252750EA3527415099F79F5F46
:10077000ECCF922F832F08952091290130912A01E7
:100780002F5F3F4F30932A01209329019091280138
:10079000911115C09091270190932D019091260100
:1007A000906890932E0180932F0183E00E94A00314
:1007B000909330018093310185E00C946603089595
:1007C00090E080E00E94AB0264E670E080E090E0A0
:1007D0000E94280360E081E10E944C0260E080E119
:1007E0000E944C0260E08DE00E944C0264E670E0E2
:1007F00080E090E00E942803109288010895CF9233
:10080000DF92EF92FF9282309105D9F0039701F5C4
:10081000C0908401D0908501E0908601F09087011E
:100820000E945A036C197D098E099F0960347F412B
:100830008105910558F481E0FF90EF90DF90CF9013
:10084000089584E00E942302892B31F410928901DB
:100850000E94E00380E0F0CFC0908401D090850139
:10086000E0908601F09087010E945A036C197D097F
:100870008E099F0968397A4381059105E0F2E6CF38
:100880008BEA94E00197F1F783E00E942302892B21
:1008900049F460E085E00E944C021092890181E0F9
:1008A0008093730108951F920F920FB60F92112437
:1008B0002F933F934F935F936F937F938F939F9368
:1008C000AF93BF93EF93FF938AE891E00E946B018F
:1008D000FF91EF91BF91AF919F918F917F916F9118
:1008E0005F914F913F912F910F900FBE0F901F90EE
:1008F00018951F920F920FB60F9211242F938F937A
:100900009F93EF93FF93E0919A01F0919B01808177
:10091000E091A001F091A10182FD1BC09081809126
:10092000A3018F5F8F732091A401821741F0E091A2
:10093000A301F0E0E657FE4F958F8093A301FF914E
:10094000EF919F918F912F910F900FBE0F901F905D
:1009500018958081F4CF1F920F920FB60F92112439
:100960002F933F938F939F93AF93BF9380911701E2
:1009700090911801A0911901B0911A0130911601BE
:1009800023E0230F2D3758F50196A11DB11D2093AB
:1009900016018093170190931801A0931901B09349
:1009A0001A0180911B0190911C01A0911D01B09131
:1009B0001E010196A11DB11D80931B0190931C0186
:1009C000A0931D01B0931E01BF91AF919F918F9194
:1009D0003F912F910F900FBE0F901F90189526E812
:1009E000230F0296A11DB11DD2CF1F920F920FB6F9
:1009F0000F9211242F933F934F935F936F937F93A5
:100A00008F939F93AF93BF93EF93FF93E091020176
:100A1000F09103010995FF91EF91BF91AF919F91E3
:100A20008F917F916F915F914F913F912F910F9097
:100A30000FBE0F901F9018951F920F920FB60F9236
:100A400011242F933F934F935F936F937F938F93D3
:100A50009F93AF93BF93EF93FF93E0910001F091C9
:100A600001010995FF91EF91BF91AF919F918F91F6
:100A70007F916F915F914F913F912F910F900FBE9A
:100A80000F901F901895EAE8F1E01382128288EE29
:100A900093E0A0E0B0E084839583A683B78388E0E9
:100AA00091E09183808385EC90E09587848784EC46
:100AB00090E09787868780EC90E0918B808B81EC2B
:100AC00090E0938B828B82EC90E0958B848B86EC0C
:100AD00090E0978B868B118E128E138E148E8FE082
:100AE00090E090932802809327020895789484B52B
:100AF000826084BD84B5816084BD85B5826085BD1A
:100B000085B5816085BD80916E00816080936E00A7
:100B10001092810080918100826080938100809199
:100B2000810081608093810080918000816080934A
:100B300080008091B10084608093B1008091B0000A
:100B400081608093B00080917A00846080937A0005
:100B500080917A00826080937A0080917A0081602F
:100B600080937A0080917A00806880937A00109256
:100B7000C10062E084E00E947A0261E085E00E94A8
:100B80007A0261E081E10E947A0261E080E10E94E4
:100B90007A0260E081E10E944C0260E080E10E9404
:100BA0004C0260E085E00E944C0261E08DE00E9412
:100BB0007A028AE891E090936E0180936D0140EC97
:100BC00052E160E070E00E948C0083E08093270196
:100BD00085E39CE090932C0180932B018BE79CE1B3
:100BE000909321018093200187E090E0909325016C
:100BF0008093240186E791E0909323018093220162
:100C000087E080931F0161E00E947A0260E087E044
:100C10000E944C0210922A011092290140EC52E1EC
:100C200060E070E08AE891E00E948C0080E494E04B
:100C3000909303018093020180916900837F886013
:100C400080936900E99AFCEE2F2EF0E03F2EC0E47D
:100C5000D4E00AEF10E0EE24E394F12CB8E7CB2EB9
:100C6000D12CBB24B39480916D0190916E01DC0175
:100C7000ED91FC910084F185E02D0995892B09F413
:100C8000CCC0912C612C80916D0190916E01DC01A2
:100C9000ED91FC910084F185E02D0995892B49F1B6
:100CA00080916D0190916E01DC01ED91FC910284C7
:100CB000F385E02D992081F0099580912B01909189
:100CC0002C0182309105F8F2880F991F880F991F27
:100CD00005970197F1F7D7CF99249394B0E46B125D
:100CE000912C0995E62DF0E0E35DFE4F808363943F
:100CF000E4CF992051F08091290190912A01019629
:100D000090932A018093290188C0E7E0E61508F056
:100D10002DC180912D01882309F46BC01092280108
:100D200070902701871529F080912801882309F404
:100D300074C0862C912C8EEF860D0E94A003940126
:100D4000235D3E4FF9013297408131962081342F47
:100D50002817390781F620912E01209326016091F2
:100D60002F01709130017627672776278091310116
:100D700090913201982789279827AB01480F591F76
:100D8000609028016110B5C0233009F0B2C0E09135
:100D90002401F09125016E177F0708F0A8C0E41721
:100DA000F50708F4A0C0880F75E0972E980E709292
:100DB0002D0180932F01962F6091220170912301C4
:100DC000E92FF0E0E417F507B8F4EE0FFF1FE60F88
:100DD000F71F3081A181E22FF0E0E35DFE4FA08399
:100DE000E1E0E20FF0E0E35DFE4F30832E5F9F5FB6
:100DF000E7CFB092280194CF8D5F0E94A003292DE8
:100E000030E0235D3E4FF901329790832150310944
:100E1000D9018C93892D0E9466038091780190916D
:100E20007901009709F440C020917C0130917D0147
:100E300082179307C9F190937D0180937C018230E2
:100E4000910509F099C0D0930301C09302018091EC
:100E50006900837F886080936900E99A65E070E0AB
:100E600080E090E00E94280390E080E00E94AB02C6
:100E70006EE170E080E090E00E94280360E081E194
:100E80000E944C0260E080E10E944C02B092890115
:100E9000109288010E945A03609384017093850127
:100EA000809386019093870180918901882309F4BA
:100EB00048C180917801909179018230910509F4BF
:100EC00097C008F062C0019709F48BC0E0E0F0E041
:100ED000EF2B09F4C8CE0E945701882309F4C1CE34
:100EE0000E940000BECE83E00E94BC0396CF82E049
:100EF000FBCF2031C9F580913301B9E08B1A9108FD
:100F00008815190409F0F7CE8091240190912501EC
:100F10006817790760F78417950728F3962F609173
:100F200022017091230187E0E92FF0E0E417F50733
:100F300080F4A82FB0E0EE0FFF1FE60FF71FA35DB0
:100F4000BE4F3C9111962C91318320838E5F9F5F21
:100F5000EBCF86E00E94A00390933301809334018D
:100F600061105BCF88E057CF81E0BECF8FEF860D59
:100F7000873008F4C0CE51CF039709F075CFE998B8
:100F8000309203012092020169CF8330910509F468
:100F9000A2C0049709F09ACF109273010E945A03DD
:100FA0002B013C0161E081E10E944C026CE271E0A6
:100FB00080E090E00E942803809173018111A9C014
:100FC0000E945A03641975098609970960317742AE
:100FD0008105910508F09DC086E990E00E94AB0272
:100FE000EBCF0E94E003D0927501C09274016ECFE6
:100FF0000E945A03409084015090850160908601C0
:1010000070908701641975098609970969387341D9
:101010008105910508F457C0809074019090750186
:10102000F9E78F16910474F10E945A0340906F0102
:10103000509070016090710170907201AB01BC0121
:101040004419550966097709809127029091280271
:10105000092E000CAA0BBB0B84179507A607B70730
:1010600088F421E0821A91089092750180927401AF
:101070000E945A0360936F01709370018093710115
:101080009093720182E090E00E94FF03882301F1B7
:1010900080918801811110C061E081E10E944C02C1
:1010A00061E08DE00E944C026EE170E080E090E033
:1010B0000E942803B092880180917401909175017B
:1010C0000E94AB0203CF1093750100937401DACF35
:1010D00010928801FBCE83E090E00E94FF038823FA
:1010E00009F4F4CE80918801811110C061E080E1A3
:1010F0000E944C0261E08DE00E944C026EE170E0C3
:1011000080E090E00E942803B09288018AEF90E08E
:10111000D7CF0E94E00380917301882359F082E0C9
:1011200090E090937D0180937C01F0927701E092B2
:101130007601CCCE82E090E09093770180937601A7
:10114000C5CE0E94E003C2CEA1E21A2EAA1BBB1B91
:10115000FD010DC0AA1FBB1FEE1FFF1FA217B30783
:10116000E407F50720F0A21BB30BE40BF50B661F99
:10117000771F881F991F1A9469F76095709580955D
:1011800090959B01AC01BD01CF010895EE0FFF1FAB
:101190000590F491E02D0994F894FFCFEC00EC0059
:1011A000000000008D01ED001A01DA014B01290158
:0211B0003D01FF
:107E0000112484B714BE81FFF0D085E080938100F7
:107E100082E08093C00088E18093C10086E0809377
:107E2000C20080E18093C4008EE0C9D0259A86E02C
:107E300020E33CEF91E0309385002093840096BBD3
:107E4000B09BFECF1D9AA8958150A9F7CC24DD24C4
:107E500088248394B5E0AB2EA1E19A2EF3E0BF2EE7
:107E6000A2D0813461F49FD0082FAFD0023811F036
:107E7000013811F484E001C083E08DD089C08234E0
:107E800011F484E103C0853419F485E0A6D080C0E4
:107E9000853579F488D0E82EFF2485D0082F10E0AE
:107EA000102F00270E291F29000F111F8ED06801E7
:107EB0006FC0863521F484E090D080E0DECF843638
:107EC00009F040C070D06FD0082F6DD080E0C81688
:107ED00080E7D80618F4F601B7BEE895C0E0D1E017
:107EE00062D089930C17E1F7F0E0CF16F0E7DF06D8
:107EF00018F0F601B7BEE89568D007B600FCFDCFD4
:107F0000A601A0E0B1E02C9130E011968C91119780
:107F100090E0982F8827822B932B1296FA010C0160
:107F200087BEE89511244E5F5F4FF1E0A038BF0790
:107F300051F7F601A7BEE89507B600FCFDCF97BE46
:107F4000E89526C08437B1F42ED02DD0F82E2BD052
:107F50003CD0F601EF2C8F010F5F1F4F84911BD097
:107F6000EA94F801C1F70894C11CD11CFA94CF0C13
:107F7000D11C0EC0853739F428D08EE10CD085E9AC
:107F80000AD08FE07ACF813511F488E018D01DD067
:107F900080E101D065CF982F8091C00085FFFCCF94
:107FA0009093C60008958091C00087FFFCCF809118
:107FB000C00084FD01C0A8958091C6000895E0E648
:107FC000F0E098E1908380830895EDDF803219F02E
:107FD00088E0F5DFFFCF84E1DECF1F93182FE3DFCA
:107FE0001150E9F7F2DF1F91089580E0E8DFEE27F6
:047FF000FF270994CA
:027FFE00040479
:00000001FF
