:100000000C945D000C9485000C9485000C94850084
:100010000C9485000C9485000C9485000C9485004C
:100020000C9485000C9485000C9485000C9485003C
:100030000C9485000C9485000C9485000C9485002C
:100040000C94F8030C9485000C94C6030C94A00344
:100050000C9485000C9485000C9485000C9485000C
:100060000C9485000C9485000000000024002700FB
:100070002A0000000000250028002B0004040404CE
:100080000404040402020202020203030303030342
:10009000010204081020408001020408102001021F
:1000A00004081020000000080002010000030407FB
:1000B0000000000000000000810611241FBECFEFE9
:1000C000D8E0DEBFCDBF11E0A0E0B1E0E0EBFDE0A5
:1000D00002C005900D92A231B107D9F722E0A2E14A
:1000E000B1E001C01D92A631B207E1F710E0CDE505
:1000F000D0E004C02197FE010E94D006CC35D10784
:10010000C9F70E9442040C94D6060C940000CF92CA
:10011000DF92EF92FF92CF93DF93EC016A017B01B4
:10012000E889F98982E08083C11481EED806E10470
:10013000F104A1F060E079E08DE390E0A701960181
:100140000E94AE0621503109410951095695479543
:1001500037952795211580E1380798F0E889F989C6
:10016000108260E874E88EE190E0A70196010E9499
:10017000AE062150310941095109569547953795E9
:100180002795EC85FD853083EE85FF852083188ECD
:10019000EC89FD898EE08083EA89FB89808180611A
:1001A0008083EA89FB89808188608083EA89FB8972
:1001B000808180688083EA89FB8980818F7D80834C
:1001C000DF91CF91FF90EF90DF90CF900895AF92A5
:1001D000BF92CF92DF92EF92FF920F931F93CF9334
:1001E000DF936C017B018B01040F151FEB015E0196
:1001F000AE18BF08C017D10759F06991D601ED912B
:10020000FC910190F081E02DC6010995892B79F7C9
:10021000C501DF91CF911F910F91FF90EF90DF907B
:10022000CF90BF90AF900895FC01538D448D252F42
:1002300030E0842F90E0821B930B541710F0CF9680
:10024000089501970895FC01918D828D981761F0B2
:10025000A28DAE0FBF2FB11D5D968C91928D9F5FC9
:100260009F73928F90E008958FEF9FEF0895FC01A8
:10027000918D828D981731F0828DE80FF11D858D5B
:1002800090E008958FEF9FEF0895FC01918D228DEE
:10029000892F90E0805C9F4F821B91098F73992773
:1002A00008958EE191E00E94450121E0892B09F437
:1002B00020E0822F089580E090E0892B29F00E94B1
:1002C000510181110C9400000895FC01A48DA80F28
:1002D000B92FB11DA35ABF4F2C91848D90E0019688
:1002E0008F739927848FA689B7892C93A089B189A8
:1002F0008C91837080648C93938D848D981306C049
:100300000288F389E02D80818F7D80830895EF92AC
:10031000FF920F931F93CF93DF93EC0181E0888FBF
:100320009B8D8C8D98131AC0E889F989808185FF8F
:1003300015C09FB7F894EE89FF896083E889F98931
:1003400080818370806480839FBF81E090E0DF9133
:10035000CF911F910F91FF90EF900895F62E0B8D86
:1003600010E00F5F1F4F0F731127E02E8C8D8E1141
:100370000CC00FB607FCFACFE889F989808185FFA8
:10038000F5CFCE010E946501F1CFEB8DEC0FFD2F73
:10039000F11DE35AFF4FF0829FB7F8940B8FEA8963
:1003A000FB8980818062CFCFCF93DF93EC01888D72
:1003B0008823B9F0AA89BB89E889F9898C9185FDE0
:1003C00003C0808186FD0DC00FB607FCF7CF8C916E
:1003D00085FFF2CF808185FFEDCFCE010E946501C0
:1003E000E9CFDF91CF91089590E0FC01EC55FF4FEC
:1003F0002491FC01E057FF4F3491FC01E458FF4F7A
:10040000E491EE23C9F0222339F0233001F1A8F45E
:10041000213019F1223029F1F0E0EE0FFF1FEE58E4
:10042000FF4FA591B4918FB7F894EC91611126C05C
:1004300030953E233C938FBF08952730A9F0283094
:10044000C9F0243049F7809180008F7D03C08091EE
:1004500080008F7780938000DFCF84B58F7784BD55
:10046000DBCF84B58F7DFBCF8091B0008F778093F9
:10047000B000D2CF8091B0008F7DF9CF3E2BDACF84
:10048000E9EAF0E0E491E33039F160F4E130D1F0F1
:10049000E230E9F060E0803891050CF061E085E041
:1004A0000C94F401E73011F1E83041F1E43091F7B8
:1004B0002091800020622093800090938B00809395
:1004C0008A00089594B5906894BD87BD089594B549
:1004D000906294BD88BD089520918000206820938B
:1004E0008000909389008093880008959091B000D7
:1004F00090689093B0008093B30008959091B000FD
:1005000090629093B0008093B4000895CF93DF93EE
:1005100090E0FC01E057FF4F249184589F4FFC016D
:1005200084918823D1F090E0880F991FFC01E8594D
:10053000FF4FA591B491FC01EE58FF4FC591D491A6
:1005400061110EC09FB7F8948C91E22FE0958E2335
:100550008C932881E223E8839FBFDF91CF91089598
:100560008FB7F894EC91E22BEC938FBFF6CF3FB7A7
:10057000F8948091170190911801A0911901B09100
:100580001A0126B5A89B05C02F3F19F00196A11DA1
:10059000B11D3FBFBA2FA92F982F8827BC01CD01CD
:1005A000620F711D811D911D42E0660F771F881F2C
:1005B000991F4A95D1F708958F929F92AF92BF925B
:1005C000CF92DF92EF92FF924B015C010E94B70243
:1005D0006B017C010E94B7026C197D098E099F098D
:1005E000683E734081059105A8F321E0821A9108C5
:1005F000A108B10888EEC80E83E0D81EE11CF11CEA
:1006000081149104A104B10429F7FF90EF90DF90C9
:10061000CF90BF90AF909F908F9008950F931F93AE
:10062000CF93DF93D82F61E080911B010E94F401EA
:1006300006EC11E0C0E08091060290910702DC0117
:10064000ED91FC91CD1749F0D8016D918D0101908C
:10065000F081E02D0995CF5FEECF0680F781E02D88
:10066000099580911C0190911D018230910538F00F
:10067000880F991F880F991F05970197F1F760E080
:1006800080911B01DF91CF911F910F910C94F40188
:10069000E6ECF1E090E02FEF3FEF981791F04191F9
:1006A000242748E0B9016170772736952795672B95
:1006B00021F051E0252750EA3527415099F79F5FF7
:1006C000ECCF922F832F08952091C2013091C30166
:1006D0002F5F3F4F3093C3012093C2019091C1011E
:1006E000911115C09091C0019093C6019091BF01E6
:1006F00090689093C7018093C80183E00E944803EB
:100700009093C9018093CA0185E00C940E0308956B
:100710008230910511F0039789F48FB7F8944091D6
:1007200013015091140160911501709116018FBF52
:1007300081E0483B5B406105710508F080E0089569
:100740001F920F920FB60F9211242F933F934F9346
:100750005F936F937F938F939F93AF93BF93EF9329
:10076000FF938EE191E00E946501FF91EF91BF91AF
:10077000AF919F918F917F916F915F914F913F9139
:100780002F910F900FBE0F901F9018951F920F92F0
:100790000FB60F9211242F938F939F93EF93FF9394
:1007A000E0912E01F0912F018081E0913401F091D0
:1007B000350182FD1BC09081809137018F5F8F735F
:1007C00020913801821741F0E0913701F0E0E25EBC
:1007D000FE4F958F80933701FF91EF919F918F91FD
:1007E0002F910F900FBE0F901F9018958081F4CF1E
:1007F0001F920F920FB60F9211242F933F938F9356
:100800009F93AF93BF938091130190911401A09196
:100810001501B09116013091120123E0230F2D37FD
:1008200058F50196A11DB11D20931201809313016B
:1008300090931401A0931501B093160180911701B4
:1008400090911801A0911901B0911A010196A11D72
:10085000B11D8093170190931801A0931901B093D3
:100860001A01BF91AF919F918F913F912F910F905E
:100870000FBE0F901F90189526E8230F0296A11D1A
:10088000B11DD2CF789484B5826084BD84B5816077
:1008900084BD85B5826085BD85B5816085BD80914B
:1008A0006E00816080936E001092810080918100C3
:1008B00082608093810080918100816080938100BB
:1008C000809180008160809380008091B10084607D
:1008D0008093B1008091B00081608093B0008091DE
:1008E0007A00846080937A0080917A00826080939D
:1008F0007A0080917A00816080937A0080917A00FA
:10090000806880937A001092C10060E083E00E94CA
:10091000860261E085E00E94860261E080E10E943B
:10092000860261E081E10E94860260E080E10E942F
:10093000F40160E081E10E94F40160E085E00E9442
:10094000F40161E08DE00E9486028EE191E09093D7
:1009500007028093060240EC52E160E070E00E94E2
:10096000870084E08093C00185E39CE09093C501FB
:100970008093C4018BE79CE190931D0180931C013F
:1009800087E090E09093BE018093BD0188E092E003
:100990009093BC018093BB0187E080931B0161E0D1
:1009A0000E94860260E087E00E94F4011092C30179
:1009B0001092C20140EC52E160E070E08EE191E003
:1009C0000E94870081E090E09093090280930802E2
:1009D000C0E0D0E011E08091060290910702DC01B6
:1009E000ED91FC910084F185E02D0995892B09F4A6
:1009F000CBC0F12C00E08091060290910702DC014F
:100A0000ED91FC910084F185E02D0995892B49F148
:100A10008091060290910702DC01ED91FC91028425
:100A2000F385E02DFF2081F009958091C40190911C
:100A3000C50182309105F8F2880F991F880F991F20
:100A400005970197F1F7D7CFFF24F394003409F00D
:100A5000F12C0995E02FF0E0EA53FE4F80830F5F01
:100A6000E4CFFF2051F08091C2019091C301019623
:100A70009093C3018093C20187C0083008F409C174
:100A80008091C601882309F46BC01092C101D090F7
:100A9000C0018D1529F08091C101882309F474C02B
:100AA000E02EF12C8EEF800F0E94480397012A530D
:100AB0003E4FF9013297408121503109F9012081DF
:100AC000342F2817390779F64091C7014093BF01A9
:100AD0002091C8013091C901322723273227809104
:100AE000CA019091CB01982789279827BC01620FF2
:100AF000731F0091C10101118DC0433009F08AC0FC
:100B0000E091BD01F091BE012E173F0708F080C0B3
:100B1000E617F70708F478C0880F05E0080FD092B1
:100B2000C6018093C801A091BB01B091BC01E22F26
:100B3000F0E0E617F707B8F4EE0FFF1FEA0FFB1F10
:100B400090813181E42FF0E0EA53FE4F3083E1E001
:100B5000E40FF0E0EA53FE4F90834E5F2F5FE7CF44
:100B60001093C10194CF8D5F0E944803202F30E085
:100B70002A533E4FF9013297908321503109D90110
:100B80008C93802F0E940E0380910A0290910B0299
:100B9000009779F120910E0230910F02821793078E
:100BA00041F190930F0280930E028230910509F477
:100BB00075C08330910509F48CC00197D1F461E0D0
:100BC00085E00E94860260E085E00E94F40168EE04
:100BD00073E080E090E00E94DC0260E080E10E942F
:100BE000F40160E081E10E94F40160E08DE00E9488
:100BF000F401209709F4EFCE0E945101882309F4F3
:100C0000EACE0E940000E7CE83E00E946403BCCFDE
:100C100082E0FBCF4031D9F58091CC01B9E0EB1AED
:100C2000F1088E151F0409F01ECF8091BD0190912F
:100C3000BE012817390760F78617970728F34091F8
:100C4000BB015091BC0137E0822F90E086179707D7
:100C500098F4E32FF0E0880F991FDA01A80FB91F6D
:100C6000EA53FE4F808191818927982789278D93A8
:100C70009C933E5F2F5FE8CF86E00E9448039093ED
:100C8000CC018093CD0101117FCF88E07BCF81E043
:100C9000BCCF0150073008F4E6CE76CF82E090E07A
:100CA0000E948803882309F4A4CF61E085E00E94B4
:100CB00086028AEF90E00E94400264EF71E080E0DB
:100CC00090E00E94DC0261E080E10E94F40161E0BA
:100CD0008DCF83E090E00E948803882309F489CFB8
:100CE00061E085E00E9486028AEF90E00E94400267
:100CF00064EF71E080E090E00E94DC0261E081E15D
:100D0000E4CFEEE1F1E01382128288EE93E0A0E0FE
:100D1000B0E084839583A683B78384E091E09183D8
:100D2000808385EC90E09587848784EC90E09787BA
:100D3000868780EC90E0918B808B81EC90E0938BA8
:100D4000828B82EC90E0958B848B86EC90E0978B85
:100D5000868B118E128E138E148E0895A1E21A2E98
:100D6000AA1BBB1BFD010DC0AA1FBB1FEE1FFF1F4F
:100D7000A217B307E407F50720F0A21BB30BE40B9F
:100D8000F50B661F771F881F991F1A9469F76095E6
:100D90007095809590959B01AC01BD01CF010895A0
:100DA000EE0FFF1F0590F491E02D0994F894FFCF0A
:100DB000000000008701E7001401D4014501230170
:020DC0003701F9
:00000001FF
